{
  "_format": "hh-sol-artifact-1",
  "contractName": "ThaiGame",
  "sourceName": "contracts/ThaiGame.sol",
  "abi": [
    {
      "inputs": [],
      "name": "AlreadyMadeMove",
      "type": "error"
    },
    {
      "inputs": [],
      "name": "GameAlreadyFinished",
      "type": "error"
    },
    {
      "inputs": [],
      "name": "GameNotStarted",
      "type": "error"
    },
    {
      "inputs": [],
      "name": "InvalidChoice",
      "type": "error"
    },
    {
      "inputs": [],
      "name": "NotPlayerInGame",
      "type": "error"
    },
    {
      "inputs": [],
      "name": "PlayerNotExists",
      "type": "error"
    },
    {
      "anonymous": false,
      "inputs": [
        {
          "indexed": true,
          "internalType": "bytes32",
          "name": "gameId",
          "type": "bytes32"
        },
        {
          "indexed": true,
          "internalType": "address",
          "name": "player1",
          "type": "address"
        }
      ],
      "name": "GameCreated",
      "type": "event"
    },
    {
      "anonymous": false,
      "inputs": [
        {
          "indexed": true,
          "internalType": "bytes32",
          "name": "gameId",
          "type": "bytes32"
        },
        {
          "indexed": true,
          "internalType": "address",
          "name": "player",
          "type": "address"
        }
      ],
      "name": "MoveMade",
      "type": "event"
    },
    {
      "anonymous": false,
      "inputs": [
        {
          "indexed": true,
          "internalType": "bytes32",
          "name": "gameId",
          "type": "bytes32"
        },
        {
          "indexed": false,
          "internalType": "address",
          "name": "winner",
          "type": "address"
        }
      ],
      "name": "Winner",
      "type": "event"
    },
    {
      "inputs": [
        {
          "internalType": "bytes32",
          "name": "_id",
          "type": "bytes32"
        }
      ],
      "name": "getGameDetails",
      "outputs": [
        {
          "components": [
            {
              "internalType": "address",
              "name": "player1",
              "type": "address"
            },
            {
              "internalType": "address",
              "name": "player2",
              "type": "address"
            },
            {
              "internalType": "string",
              "name": "player1Name",
              "type": "string"
            },
            {
              "internalType": "string",
              "name": "player2Name",
              "type": "string"
            },
            {
              "internalType": "uint8",
              "name": "p1Choice",
              "type": "uint8"
            },
            {
              "internalType": "uint8",
              "name": "p2Choice",
              "type": "uint8"
            },
            {
              "internalType": "address",
              "name": "winner",
              "type": "address"
            },
            {
              "internalType": "uint8",
              "name": "gameState",
              "type": "uint8"
            }
          ],
          "internalType": "struct ThaiGame.PublicGameView",
          "name": "",
          "type": "tuple"
        }
      ],
      "stateMutability": "view",
      "type": "function"
    },
    {
      "inputs": [
        {
          "internalType": "address",
          "name": "_player",
          "type": "address"
        }
      ],
      "name": "getPlayerDetails",
      "outputs": [
        {
          "internalType": "uint256",
          "name": "wins",
          "type": "uint256"
        },
        {
          "internalType": "uint256",
          "name": "losses",
          "type": "uint256"
        }
      ],
      "stateMutability": "view",
      "type": "function"
    },
    {
      "inputs": [
        {
          "internalType": "bytes32",
          "name": "_id",
          "type": "bytes32"
        },
        {
          "internalType": "uint8",
          "name": "_choice",
          "type": "uint8"
        },
        {
          "internalType": "string",
          "name": "_playerName",
          "type": "string"
        }
      ],
      "name": "makeMove",
      "outputs": [],
      "stateMutability": "nonpayable",
      "type": "function"
    },
    {
      "inputs": [
        {
          "internalType": "address",
          "name": "",
          "type": "address"
        }
      ],
      "name": "players",
      "outputs": [
        {
          "internalType": "bool",
          "name": "initialized",
          "type": "bool"
        },
        {
          "internalType": "uint256",
          "name": "wins",
          "type": "uint256"
        },
        {
          "internalType": "uint256",
          "name": "losses",
          "type": "uint256"
        }
      ],
      "stateMutability": "view",
      "type": "function"
    }
  ],
  "bytecode": "0x6080604052348015600f57600080fd5b506119f98061001f6000396000f3fe608060405234801561001057600080fd5b506004361061004c5760003560e01c80638a1fa02914610051578063c895752c14610081578063c8dd6ce71461009d578063e2eb41ff146100ce575b600080fd5b61006b60048036038101906100669190611155565b610100565b6040516100789190611326565b60405180910390f35b61009b600480360381019061009691906113d9565b6104a7565b005b6100b760048036038101906100b29190611479565b610891565b6040516100c59291906114bf565b60405180910390f35b6100e860048036038101906100e39190611479565b6109a6565b6040516100f793929190611503565b60405180910390f35b610108611085565b60006001600084815260200190815260200160002060040160169054906101000a900460ff1660ff1603610168576040517f3a5f7b5700000000000000000000000000000000000000000000000000000000815260040160405180910390fd5b6040518061010001604052806001600085815260200190815260200160002060000160009054906101000a900473ffffffffffffffffffffffffffffffffffffffff1673ffffffffffffffffffffffffffffffffffffffff1681526020016001600085815260200190815260200160002060010160009054906101000a900473ffffffffffffffffffffffffffffffffffffffff1673ffffffffffffffffffffffffffffffffffffffff16815260200160016000858152602001908152602001600020600201805461023990611569565b80601f016020809104026020016040519081016040528092919081815260200182805461026590611569565b80156102b25780601f10610287576101008083540402835291602001916102b2565b820191906000526020600020905b81548152906001019060200180831161029557829003601f168201915b505050505081526020016001600085815260200190815260200160002060030180546102dd90611569565b80601f016020809104026020016040519081016040528092919081815260200182805461030990611569565b80156103565780601f1061032b57610100808354040283529160200191610356565b820191906000526020600020905b81548152906001019060200180831161033957829003601f168201915b5050505050815260200160036001600086815260200190815260200160002060040160169054906101000a900460ff1660ff16146103955760006103ba565b6001600085815260200190815260200160002060040160009054906101000a900460ff165b60ff16815260200160036001600086815260200190815260200160002060040160169054906101000a900460ff1660ff16146103f757600061041c565b6001600085815260200190815260200160002060040160019054906101000a900460ff165b60ff1681526020016001600085815260200190815260200160002060040160029054906101000a900473ffffffffffffffffffffffffffffffffffffffff1673ffffffffffffffffffffffffffffffffffffffff1681526020016001600085815260200190815260200160002060040160169054906101000a900460ff1660ff168152509050919050565b60018360ff1610806104bc575060038360ff16115b156104f3576040517f9c45400100000000000000000000000000000000000000000000000000000000815260040160405180910390fd5b60036001600086815260200190815260200160002060040160169054906101000a900460ff1660ff1610610553576040517fc5a977b100000000000000000000000000000000000000000000000000000000815260040160405180910390fd5b6000803373ffffffffffffffffffffffffffffffffffffffff1673ffffffffffffffffffffffffffffffffffffffff16815260200190815260200160002060000160009054906101000a900460ff166105b0576105af336109dd565b5b60006001600086815260200190815260200160002060040160169054906101000a900460ff1660ff1603610663576105eb3383838787610a75565b600180600086815260200190815260200160002060040160166101000a81548160ff021916908360ff1602179055503373ffffffffffffffffffffffffffffffffffffffff16847f9ca8380e3c4bb1a9bc0b882eb77c054ecb69d6801035d7c0dedb42373ad24eb060405160405180910390a361088b565b600180600086815260200190815260200160002060040160169054906101000a900460ff1660ff160361088a573373ffffffffffffffffffffffffffffffffffffffff166001600086815260200190815260200160002060000160009054906101000a900473ffffffffffffffffffffffffffffffffffffffff1673ffffffffffffffffffffffffffffffffffffffff160361072b576040517fc0ef168f00000000000000000000000000000000000000000000000000000000815260040160405180910390fd5b336001600086815260200190815260200160002060010160006101000a81548173ffffffffffffffffffffffffffffffffffffffff021916908373ffffffffffffffffffffffffffffffffffffffff16021790555081816001600087815260200190815260200160002060030191826107a5929190611780565b50826001600086815260200190815260200160002060040160016101000a81548160ff021916908360ff16021790555060036001600086815260200190815260200160002060040160166101000a81548160ff021916908360ff1602179055503373ffffffffffffffffffffffffffffffffffffffff16847f9ca8380e3c4bb1a9bc0b882eb77c054ecb69d6801035d7c0dedb42373ad24eb060405160405180910390a3837f356820a8ffb2e87f807efe30f3a77937f6273fa64c46730bdd8653974f3ecb3761087486610d16565b604051610881919061185f565b60405180910390a25b5b50505050565b6000806000808473ffffffffffffffffffffffffffffffffffffffff1673ffffffffffffffffffffffffffffffffffffffff16815260200190815260200160002060000160009054906101000a900460ff16610919576040517fcf9bb8be00000000000000000000000000000000000000000000000000000000815260040160405180910390fd5b6000808473ffffffffffffffffffffffffffffffffffffffff1673ffffffffffffffffffffffffffffffffffffffff168152602001908152602001600020600101546000808573ffffffffffffffffffffffffffffffffffffffff1673ffffffffffffffffffffffffffffffffffffffff1681526020019081526020016000206002015491509150915091565b60006020528060005260406000206000915090508060000160009054906101000a900460ff16908060010154908060020154905083565b60405180606001604052806001151581526020016000815260200160008152506000808373ffffffffffffffffffffffffffffffffffffffff1673ffffffffffffffffffffffffffffffffffffffff16815260200190815260200160002060008201518160000160006101000a81548160ff021916908315150217905550602082015181600101556040820151816002015590505050565b6040518061010001604052808673ffffffffffffffffffffffffffffffffffffffff168152602001600073ffffffffffffffffffffffffffffffffffffffff16815260200185858080601f016020809104026020016040519081016040528093929190818152602001838380828437600081840152601f19601f8201169050808301925050505050505081526020016040518060200160405280600081525081526020018260ff168152602001600060ff168152602001600073ffffffffffffffffffffffffffffffffffffffff168152602001600060ff168152506001600084815260200190815260200160002060008201518160000160006101000a81548173ffffffffffffffffffffffffffffffffffffffff021916908373ffffffffffffffffffffffffffffffffffffffff16021790555060208201518160010160006101000a81548173ffffffffffffffffffffffffffffffffffffffff021916908373ffffffffffffffffffffffffffffffffffffffff1602179055506040820151816002019081610c07919061187a565b506060820151816003019081610c1d919061187a565b5060808201518160040160006101000a81548160ff021916908360ff16021790555060a08201518160040160016101000a81548160ff021916908360ff16021790555060c08201518160040160026101000a81548173ffffffffffffffffffffffffffffffffffffffff021916908373ffffffffffffffffffffffffffffffffffffffff16021790555060e08201518160040160166101000a81548160ff021916908360ff1602179055509050508473ffffffffffffffffffffffffffffffffffffffff16827fdb39b7323105b04a697f43db521ca7e936b02b98992c04ce3bbfa4a59d789ff660405160405180910390a35050505050565b6000806000806001600086815260200190815260200160002060000160009054906101000a900473ffffffffffffffffffffffffffffffffffffffff16905060006001600087815260200190815260200160002060010160009054906101000a900473ffffffffffffffffffffffffffffffffffffffff16905060006001600088815260200190815260200160002060040160009054906101000a900460ff16905060006001600089815260200190815260200160002060040160019054906101000a900460ff1690508060ff168260ff1603610e52576000600160008a815260200190815260200160002060040160026101000a81548173ffffffffffffffffffffffffffffffffffffffff021916908373ffffffffffffffffffffffffffffffffffffffff16021790555060009650505050505050611080565b600160ff168260ff16148015610e6e5750600360ff168160ff16145b15610e825782848096508197505050610f73565b600160ff168160ff16148015610e9e5750600360ff168260ff16145b15610eb25783838096508197505050610f72565b600260ff168260ff16148015610ece5750600360ff168160ff16145b15610ee25783838096508197505050610f71565b600260ff168160ff16148015610efe5750600360ff168260ff16145b15610f125782848096508197505050610f70565b600160ff168260ff16148015610f2e5750600260ff168160ff16145b15610f425783838096508197505050610f6f565b600160ff168160ff16148015610f5e5750600260ff168260ff16145b15610f6e57828480965081975050505b5b5b5b5b5b85600160008a815260200190815260200160002060040160026101000a81548173ffffffffffffffffffffffffffffffffffffffff021916908373ffffffffffffffffffffffffffffffffffffffff1602179055506000808773ffffffffffffffffffffffffffffffffffffffff1673ffffffffffffffffffffffffffffffffffffffff168152602001908152602001600020600101600081548092919061101a9061197b565b91905055506000808673ffffffffffffffffffffffffffffffffffffffff1673ffffffffffffffffffffffffffffffffffffffff16815260200190815260200160002060020160008154809291906110719061197b565b91905055508596505050505050505b919050565b604051806101000160405280600073ffffffffffffffffffffffffffffffffffffffff168152602001600073ffffffffffffffffffffffffffffffffffffffff1681526020016060815260200160608152602001600060ff168152602001600060ff168152602001600073ffffffffffffffffffffffffffffffffffffffff168152602001600060ff1681525090565b600080fd5b600080fd5b6000819050919050565b6111328161111f565b811461113d57600080fd5b50565b60008135905061114f81611129565b92915050565b60006020828403121561116b5761116a611115565b5b600061117984828501611140565b91505092915050565b600073ffffffffffffffffffffffffffffffffffffffff82169050919050565b60006111ad82611182565b9050919050565b6111bd816111a2565b82525050565b600081519050919050565b600082825260208201905092915050565b60005b838110156111fd5780820151818401526020810190506111e2565b60008484015250505050565b6000601f19601f8301169050919050565b6000611225826111c3565b61122f81856111ce565b935061123f8185602086016111df565b61124881611209565b840191505092915050565b600060ff82169050919050565b61126981611253565b82525050565b60006101008301600083015161128860008601826111b4565b50602083015161129b60208601826111b4565b50604083015184820360408601526112b3828261121a565b915050606083015184820360608601526112cd828261121a565b91505060808301516112e26080860182611260565b5060a08301516112f560a0860182611260565b5060c083015161130860c08601826111b4565b5060e083015161131b60e0860182611260565b508091505092915050565b60006020820190508181036000830152611340818461126f565b905092915050565b61135181611253565b811461135c57600080fd5b50565b60008135905061136e81611348565b92915050565b600080fd5b600080fd5b600080fd5b60008083601f84011261139957611398611374565b5b8235905067ffffffffffffffff8111156113b6576113b5611379565b5b6020830191508360018202830111156113d2576113d161137e565b5b9250929050565b600080600080606085870312156113f3576113f2611115565b5b600061140187828801611140565b94505060206114128782880161135f565b935050604085013567ffffffffffffffff8111156114335761143261111a565b5b61143f87828801611383565b925092505092959194509250565b611456816111a2565b811461146157600080fd5b50565b6000813590506114738161144d565b92915050565b60006020828403121561148f5761148e611115565b5b600061149d84828501611464565b91505092915050565b6000819050919050565b6114b9816114a6565b82525050565b60006040820190506114d460008301856114b0565b6114e160208301846114b0565b9392505050565b60008115159050919050565b6114fd816114e8565b82525050565b600060608201905061151860008301866114f4565b61152560208301856114b0565b61153260408301846114b0565b949350505050565b7f4e487b7100000000000000000000000000000000000000000000000000000000600052602260045260246000fd5b6000600282049050600182168061158157607f821691505b6020821081036115945761159361153a565b5b50919050565b600082905092915050565b7f4e487b7100000000000000000000000000000000000000000000000000000000600052604160045260246000fd5b60008190508160005260206000209050919050565b60006020601f8301049050919050565b600082821b905092915050565b6000600883026116367fffffffffffffffffffffffffffffffffffffffffffffffffffffffffffffffff826115f9565b61164086836115f9565b95508019841693508086168417925050509392505050565b6000819050919050565b600061167d611678611673846114a6565b611658565b6114a6565b9050919050565b6000819050919050565b61169783611662565b6116ab6116a382611684565b848454611606565b825550505050565b600090565b6116c06116b3565b6116cb81848461168e565b505050565b5b818110156116ef576116e46000826116b8565b6001810190506116d1565b5050565b601f82111561173457611705816115d4565b61170e846115e9565b8101602085101561171d578190505b611731611729856115e9565b8301826116d0565b50505b505050565b600082821c905092915050565b600061175760001984600802611739565b1980831691505092915050565b60006117708383611746565b9150826002028217905092915050565b61178a838361159a565b67ffffffffffffffff8111156117a3576117a26115a5565b5b6117ad8254611569565b6117b88282856116f3565b6000601f8311600181146117e757600084156117d5578287013590505b6117df8582611764565b865550611847565b601f1984166117f5866115d4565b60005b8281101561181d578489013582556001820191506020850194506020810190506117f8565b8683101561183a5784890135611836601f891682611746565b8355505b6001600288020188555050505b50505050505050565b611859816111a2565b82525050565b60006020820190506118746000830184611850565b92915050565b611883826111c3565b67ffffffffffffffff81111561189c5761189b6115a5565b5b6118a68254611569565b6118b18282856116f3565b600060209050601f8311600181146118e457600084156118d2578287015190505b6118dc8582611764565b865550611944565b601f1984166118f2866115d4565b60005b8281101561191a578489015182556001820191506020850194506020810190506118f5565b868310156119375784890151611933601f891682611746565b8355505b6001600288020188555050505b505050505050565b7f4e487b7100000000000000000000000000000000000000000000000000000000600052601160045260246000fd5b6000611986826114a6565b91507fffffffffffffffffffffffffffffffffffffffffffffffffffffffffffffffff82036119b8576119b761194c565b5b60018201905091905056fea2646970667358221220bc68ab987c8507539edda392e1d5963883544839b694d77f697ea23d1c857de764736f6c634300081c0033",
  "linkReferences": {},
  "deployedLinkReferences": {}
}